{
  "contractName": "DataType",
  "abi": [
    {
      "inputs": [
        {
          "internalType": "string",
          "name": "_name",
          "type": "string"
        },
        {
          "internalType": "address",
          "name": "_oath_address",
          "type": "address"
        }
      ],
      "stateMutability": "nonpayable",
      "type": "constructor"
    },
    {
      "inputs": [],
      "name": "name",
      "outputs": [
        {
          "internalType": "string",
          "name": "",
          "type": "string"
        }
      ],
      "stateMutability": "view",
      "type": "function"
    },
    {
      "inputs": [],
      "name": "oath_instance",
      "outputs": [
        {
          "internalType": "contract Oath",
          "name": "",
          "type": "address"
        }
      ],
      "stateMutability": "view",
      "type": "function"
    },
    {
      "inputs": [
        {
          "internalType": "string",
          "name": "savedData",
          "type": "string"
        }
      ],
      "name": "_addData",
      "outputs": [],
      "stateMutability": "nonpayable",
      "type": "function"
    },
    {
      "inputs": [
        {
          "internalType": "address",
          "name": "user_wallet",
          "type": "address"
        },
        {
          "internalType": "string",
          "name": "reason",
          "type": "string"
        },
        {
          "internalType": "address",
          "name": "data_type_address",
          "type": "address"
        }
      ],
      "name": "_fetch",
      "outputs": [
        {
          "internalType": "string",
          "name": "",
          "type": "string"
        }
      ],
      "stateMutability": "nonpayable",
      "type": "function"
    }
  ],
  "bytecode": "0x60806040523480156200001157600080fd5b50604051620010203803806200102083398181016040528101906200003791906200034b565b81600090805190602001906200004f92919062000099565b5080600160006101000a81548173ffffffffffffffffffffffffffffffffffffffff021916908373ffffffffffffffffffffffffffffffffffffffff160217905550505062000416565b828054620000a790620003e0565b90600052602060002090601f016020900481019282620000cb576000855562000117565b82601f10620000e657805160ff191683800117855562000117565b8280016001018555821562000117579182015b8281111562000116578251825591602001919060010190620000f9565b5b5090506200012691906200012a565b5090565b5b80821115620001455760008160009055506001016200012b565b5090565b6000604051905090565b600080fd5b600080fd5b600080fd5b600080fd5b6000601f19601f8301169050919050565b7f4e487b7100000000000000000000000000000000000000000000000000000000600052604160045260246000fd5b620001b28262000167565b810181811067ffffffffffffffff82111715620001d457620001d362000178565b5b80604052505050565b6000620001e962000149565b9050620001f78282620001a7565b919050565b600067ffffffffffffffff8211156200021a576200021962000178565b5b620002258262000167565b9050602081019050919050565b60005b838110156200025257808201518184015260208101905062000235565b8381111562000262576000848401525b50505050565b60006200027f6200027984620001fc565b620001dd565b9050828152602081018484840111156200029e576200029d62000162565b5b620002ab84828562000232565b509392505050565b600082601f830112620002cb57620002ca6200015d565b5b8151620002dd84826020860162000268565b91505092915050565b600073ffffffffffffffffffffffffffffffffffffffff82169050919050565b60006200031382620002e6565b9050919050565b620003258162000306565b81146200033157600080fd5b50565b60008151905062000345816200031a565b92915050565b6000806040838503121562000365576200036462000153565b5b600083015167ffffffffffffffff81111562000386576200038562000158565b5b6200039485828601620002b3565b9250506020620003a78582860162000334565b9150509250929050565b7f4e487b7100000000000000000000000000000000000000000000000000000000600052602260045260246000fd5b60006002820490506001821680620003f957607f821691505b6020821081141562000410576200040f620003b1565b5b50919050565b610bfa80620004266000396000f3fe608060405234801561001057600080fd5b506004361061004c5760003560e01c806306fdde03146100515780630db7dc391461006f5780631d8a45c11461009f57806376e307e3146100bb575b600080fd5b6100596100d9565b60405161006691906106dd565b60405180910390f35b610089600480360381019061008491906108a6565b610167565b60405161009691906106dd565b60405180910390f35b6100b960048036038101906100b49190610915565b610521565b005b6100c361057b565b6040516100d091906109bd565b60405180910390f35b600080546100e690610a07565b80601f016020809104026020016040519081016040528092919081815260200182805461011290610a07565b801561015f5780601f106101345761010080835404028352916020019161015f565b820191906000526020600020905b81548152906001019060200180831161014257829003601f168201915b505050505081565b60608373ffffffffffffffffffffffffffffffffffffffff163373ffffffffffffffffffffffffffffffffffffffff16141561026f57600260008573ffffffffffffffffffffffffffffffffffffffff1673ffffffffffffffffffffffffffffffffffffffff16815260200190815260200160002060010180546101ea90610a07565b80601f016020809104026020016040519081016040528092919081815260200182805461021690610a07565b80156102635780601f1061023857610100808354040283529160200191610263565b820191906000526020600020905b81548152906001019060200180831161024657829003601f168201915b5050505050905061051a565b600160009054906101000a900473ffffffffffffffffffffffffffffffffffffffff1673ffffffffffffffffffffffffffffffffffffffff16634265527985846040518363ffffffff1660e01b81526004016102cc929190610a48565b602060405180830381865afa1580156102e9573d6000803e3d6000fd5b505050506040513d601f19601f8201168201806040525081019061030d9190610aa9565b61034c576040517f08c379a000000000000000000000000000000000000000000000000000000000815260040161034390610b22565b60405180910390fd5b6000600260008673ffffffffffffffffffffffffffffffffffffffff1673ffffffffffffffffffffffffffffffffffffffff16815260200190815260200160002060000160003373ffffffffffffffffffffffffffffffffffffffff1673ffffffffffffffffffffffffffffffffffffffff16815260200190815260200160002090508473ffffffffffffffffffffffffffffffffffffffff163373ffffffffffffffffffffffffffffffffffffffff161461044b5780600001600081548092919061041790610b7b565b9190505550838160010160008360000154815260200190815260200160002090805190602001906104499291906105a1565b505b600260008673ffffffffffffffffffffffffffffffffffffffff1673ffffffffffffffffffffffffffffffffffffffff168152602001908152602001600020600101805461049890610a07565b80601f01602080910402602001604051908101604052809291908181526020018280546104c490610a07565b80156105115780601f106104e657610100808354040283529160200191610511565b820191906000526020600020905b8154815290600101906020018083116104f457829003601f168201915b50505050509150505b9392505050565b80600260003373ffffffffffffffffffffffffffffffffffffffff1673ffffffffffffffffffffffffffffffffffffffff16815260200190815260200160002060010190805190602001906105779291906105a1565b5050565b600160009054906101000a900473ffffffffffffffffffffffffffffffffffffffff1681565b8280546105ad90610a07565b90600052602060002090601f0160209004810192826105cf5760008555610616565b82601f106105e857805160ff1916838001178555610616565b82800160010185558215610616579182015b828111156106155782518255916020019190600101906105fa565b5b5090506106239190610627565b5090565b5b80821115610640576000816000905550600101610628565b5090565b600081519050919050565b600082825260208201905092915050565b60005b8381101561067e578082015181840152602081019050610663565b8381111561068d576000848401525b50505050565b6000601f19601f8301169050919050565b60006106af82610644565b6106b9818561064f565b93506106c9818560208601610660565b6106d281610693565b840191505092915050565b600060208201905081810360008301526106f781846106a4565b905092915050565b6000604051905090565b600080fd5b600080fd5b600073ffffffffffffffffffffffffffffffffffffffff82169050919050565b600061073e82610713565b9050919050565b61074e81610733565b811461075957600080fd5b50565b60008135905061076b81610745565b92915050565b600080fd5b600080fd5b7f4e487b7100000000000000000000000000000000000000000000000000000000600052604160045260246000fd5b6107b382610693565b810181811067ffffffffffffffff821117156107d2576107d161077b565b5b80604052505050565b60006107e56106ff565b90506107f182826107aa565b919050565b600067ffffffffffffffff8211156108115761081061077b565b5b61081a82610693565b9050602081019050919050565b82818337600083830152505050565b6000610849610844846107f6565b6107db565b90508281526020810184848401111561086557610864610776565b5b610870848285610827565b509392505050565b600082601f83011261088d5761088c610771565b5b813561089d848260208601610836565b91505092915050565b6000806000606084860312156108bf576108be610709565b5b60006108cd8682870161075c565b935050602084013567ffffffffffffffff8111156108ee576108ed61070e565b5b6108fa86828701610878565b925050604061090b8682870161075c565b9150509250925092565b60006020828403121561092b5761092a610709565b5b600082013567ffffffffffffffff8111156109495761094861070e565b5b61095584828501610878565b91505092915050565b6000819050919050565b600061098361097e61097984610713565b61095e565b610713565b9050919050565b600061099582610968565b9050919050565b60006109a78261098a565b9050919050565b6109b78161099c565b82525050565b60006020820190506109d260008301846109ae565b92915050565b7f4e487b7100000000000000000000000000000000000000000000000000000000600052602260045260246000fd5b60006002820490506001821680610a1f57607f821691505b60208210811415610a3357610a326109d8565b5b50919050565b610a4281610733565b82525050565b6000604082019050610a5d6000830185610a39565b610a6a6020830184610a39565b9392505050565b60008115159050919050565b610a8681610a71565b8114610a9157600080fd5b50565b600081519050610aa381610a7d565b92915050565b600060208284031215610abf57610abe610709565b5b6000610acd84828501610a94565b91505092915050565b7f4e6f20636f6e6e656374696f6e20666f756e6400000000000000000000000000600082015250565b6000610b0c60138361064f565b9150610b1782610ad6565b602082019050919050565b60006020820190508181036000830152610b3b81610aff565b9050919050565b7f4e487b7100000000000000000000000000000000000000000000000000000000600052601160045260246000fd5b6000819050919050565b6000610b8682610b71565b91507fffffffffffffffffffffffffffffffffffffffffffffffffffffffffffffffff821415610bb957610bb8610b42565b5b60018201905091905056fea26469706673582212207061a36596b02b7e39121932ccd6c6b99724930e4471ebf36602a0d02da867bd64736f6c634300080b0033",
  "immutableReferences": {},
  "source": "// SPDX-License-Identifier: Cabal\npragma solidity ^0.8.0;\n\nimport \"./Oath.sol\";\n\ncontract DataType {\n    string public name;\n    Oath public oath_instance;\n\n    struct Request {\n        uint256 count;\n        mapping(uint256 => string) reasons; //reasons why app asked for this data\n    }\n\n    struct Data {\n        mapping(address => Request) services;\n        string savedData; //the location the data is saved\n    }\n\n    mapping(address => Data) users;\n\n    constructor(string memory _name, address _oath_address) {\n        name = _name;\n        oath_instance = Oath(_oath_address);\n\n    }\n\n    function _addData(string memory savedData) public {\n        users[msg.sender].savedData = savedData;\n    }\n\n    function _fetch(\n        address user_wallet,\n        string memory reason,\n        address data_type_address\n    ) public returns (string memory) {\n        if (msg.sender == user_wallet) {\n            return (users[user_wallet].savedData);\n        } else {\n            require(\n                oath_instance.checkConnection(user_wallet, data_type_address),\n                \"No connection found\"\n            );\n            Request storage request = users[user_wallet].services[msg.sender];\n            if (msg.sender != user_wallet) {\n                request.count++;\n                request.reasons[request.count] = reason;\n            }\n            return (users[user_wallet].savedData);\n        }\n    }\n}\n",
  "sourcePath": "/Users/mast/Projects/ETHNYC/Cabal-ETHNYC/cabal-contracts/contracts/DataType.sol",
  "compiler": {
    "name": "solc",
    "version": "0.8.11+commit.d7f03943.Emscripten.clang"
  },
  "schemaVersion": "3.4.5",
  "updatedAt": "2022-06-26T06:24:37.015Z",
  "devdoc": {
    "kind": "dev",
    "methods": {},
    "version": 1
  },
  "userdoc": {
    "kind": "user",
    "methods": {},
    "version": 1
  }
}