{
  "contractName": "DataType",
  "abi": [
    {
      "inputs": [
        {
          "internalType": "string",
          "name": "_name",
          "type": "string"
        },
        {
          "internalType": "address",
          "name": "_oath_address",
          "type": "address"
        }
      ],
      "stateMutability": "nonpayable",
      "type": "constructor"
    },
    {
      "inputs": [],
      "name": "name",
      "outputs": [
        {
          "internalType": "string",
          "name": "",
          "type": "string"
        }
      ],
      "stateMutability": "view",
      "type": "function"
    },
    {
      "inputs": [],
      "name": "oath_instance",
      "outputs": [
        {
          "internalType": "contract Oath",
          "name": "",
          "type": "address"
        }
      ],
      "stateMutability": "view",
      "type": "function"
    },
    {
      "inputs": [
        {
          "internalType": "string",
          "name": "savedData",
          "type": "string"
        }
      ],
      "name": "_addData",
      "outputs": [],
      "stateMutability": "nonpayable",
      "type": "function"
    },
    {
      "inputs": [
        {
          "internalType": "address",
          "name": "user_wallet",
          "type": "address"
        },
        {
          "internalType": "string",
          "name": "reason",
          "type": "string"
        },
        {
          "internalType": "address",
          "name": "data_type_address",
          "type": "address"
        },
        {
          "internalType": "address",
          "name": "provider_address",
          "type": "address"
        }
      ],
      "name": "_fetch",
      "outputs": [
        {
          "internalType": "string",
          "name": "",
          "type": "string"
        }
      ],
      "stateMutability": "nonpayable",
      "type": "function"
    }
  ],
  "bytecode": "0x60806040523480156200001157600080fd5b50604051620010293803806200102983398181016040528101906200003791906200034b565b81600090805190602001906200004f92919062000099565b5080600160006101000a81548173ffffffffffffffffffffffffffffffffffffffff021916908373ffffffffffffffffffffffffffffffffffffffff160217905550505062000416565b828054620000a790620003e0565b90600052602060002090601f016020900481019282620000cb576000855562000117565b82601f10620000e657805160ff191683800117855562000117565b8280016001018555821562000117579182015b8281111562000116578251825591602001919060010190620000f9565b5b5090506200012691906200012a565b5090565b5b80821115620001455760008160009055506001016200012b565b5090565b6000604051905090565b600080fd5b600080fd5b600080fd5b600080fd5b6000601f19601f8301169050919050565b7f4e487b7100000000000000000000000000000000000000000000000000000000600052604160045260246000fd5b620001b28262000167565b810181811067ffffffffffffffff82111715620001d457620001d362000178565b5b80604052505050565b6000620001e962000149565b9050620001f78282620001a7565b919050565b600067ffffffffffffffff8211156200021a576200021962000178565b5b620002258262000167565b9050602081019050919050565b60005b838110156200025257808201518184015260208101905062000235565b8381111562000262576000848401525b50505050565b60006200027f6200027984620001fc565b620001dd565b9050828152602081018484840111156200029e576200029d62000162565b5b620002ab84828562000232565b509392505050565b600082601f830112620002cb57620002ca6200015d565b5b8151620002dd84826020860162000268565b91505092915050565b600073ffffffffffffffffffffffffffffffffffffffff82169050919050565b60006200031382620002e6565b9050919050565b620003258162000306565b81146200033157600080fd5b50565b60008151905062000345816200031a565b92915050565b6000806040838503121562000365576200036462000153565b5b600083015167ffffffffffffffff81111562000386576200038562000158565b5b6200039485828601620002b3565b9250506020620003a78582860162000334565b9150509250929050565b7f4e487b7100000000000000000000000000000000000000000000000000000000600052602260045260246000fd5b60006002820490506001821680620003f957607f821691505b6020821081141562000410576200040f620003b1565b5b50919050565b610c0380620004266000396000f3fe608060405234801561001057600080fd5b506004361061004c5760003560e01c806306fdde03146100515780631d8a45c11461006f57806376e307e31461008b578063d15a2908146100a9575b600080fd5b6100596100d9565b60405161006691906106c4565b60405180910390f35b6100896004803603810190610084919061082f565b610167565b005b6100936101c1565b6040516100a091906108f7565b60405180910390f35b6100c360048036038101906100be9190610950565b6101e7565b6040516100d091906106c4565b60405180910390f35b600080546100e690610a02565b80601f016020809104026020016040519081016040528092919081815260200182805461011290610a02565b801561015f5780601f106101345761010080835404028352916020019161015f565b820191906000526020600020905b81548152906001019060200180831161014257829003601f168201915b505050505081565b80600260003373ffffffffffffffffffffffffffffffffffffffff1673ffffffffffffffffffffffffffffffffffffffff16815260200190815260200160002060010190805190602001906101bd929190610588565b5050565b600160009054906101000a900473ffffffffffffffffffffffffffffffffffffffff1681565b60608473ffffffffffffffffffffffffffffffffffffffff163373ffffffffffffffffffffffffffffffffffffffff1614156102ef57600260008673ffffffffffffffffffffffffffffffffffffffff1673ffffffffffffffffffffffffffffffffffffffff168152602001908152602001600020600101805461026a90610a02565b80601f016020809104026020016040519081016040528092919081815260200182805461029690610a02565b80156102e35780601f106102b8576101008083540402835291602001916102e3565b820191906000526020600020905b8154815290600101906020018083116102c657829003601f168201915b50505050509050610580565b60008290508073ffffffffffffffffffffffffffffffffffffffff1663d51ab8608786336040518463ffffffff1660e01b815260040161033193929190610a43565b602060405180830381865afa15801561034e573d6000803e3d6000fd5b505050506040513d601f19601f820116820180604052508101906103729190610ab2565b6103b1576040517f08c379a00000000000000000000000000000000000000000000000000000000081526004016103a890610b2b565b60405180910390fd5b6000600260008873ffffffffffffffffffffffffffffffffffffffff1673ffffffffffffffffffffffffffffffffffffffff16815260200190815260200160002060000160003373ffffffffffffffffffffffffffffffffffffffff1673ffffffffffffffffffffffffffffffffffffffff16815260200190815260200160002090508673ffffffffffffffffffffffffffffffffffffffff163373ffffffffffffffffffffffffffffffffffffffff16146104b05780600001600081548092919061047c90610b84565b9190505550858160010160008360000154815260200190815260200160002090805190602001906104ae929190610588565b505b600260008873ffffffffffffffffffffffffffffffffffffffff1673ffffffffffffffffffffffffffffffffffffffff16815260200190815260200160002060010180546104fd90610a02565b80601f016020809104026020016040519081016040528092919081815260200182805461052990610a02565b80156105765780601f1061054b57610100808354040283529160200191610576565b820191906000526020600020905b81548152906001019060200180831161055957829003601f168201915b5050505050925050505b949350505050565b82805461059490610a02565b90600052602060002090601f0160209004810192826105b657600085556105fd565b82601f106105cf57805160ff19168380011785556105fd565b828001600101855582156105fd579182015b828111156105fc5782518255916020019190600101906105e1565b5b50905061060a919061060e565b5090565b5b8082111561062757600081600090555060010161060f565b5090565b600081519050919050565b600082825260208201905092915050565b60005b8381101561066557808201518184015260208101905061064a565b83811115610674576000848401525b50505050565b6000601f19601f8301169050919050565b60006106968261062b565b6106a08185610636565b93506106b0818560208601610647565b6106b98161067a565b840191505092915050565b600060208201905081810360008301526106de818461068b565b905092915050565b6000604051905090565b600080fd5b600080fd5b600080fd5b600080fd5b7f4e487b7100000000000000000000000000000000000000000000000000000000600052604160045260246000fd5b61073c8261067a565b810181811067ffffffffffffffff8211171561075b5761075a610704565b5b80604052505050565b600061076e6106e6565b905061077a8282610733565b919050565b600067ffffffffffffffff82111561079a57610799610704565b5b6107a38261067a565b9050602081019050919050565b82818337600083830152505050565b60006107d26107cd8461077f565b610764565b9050828152602081018484840111156107ee576107ed6106ff565b5b6107f98482856107b0565b509392505050565b600082601f830112610816576108156106fa565b5b81356108268482602086016107bf565b91505092915050565b600060208284031215610845576108446106f0565b5b600082013567ffffffffffffffff811115610863576108626106f5565b5b61086f84828501610801565b91505092915050565b600073ffffffffffffffffffffffffffffffffffffffff82169050919050565b6000819050919050565b60006108bd6108b86108b384610878565b610898565b610878565b9050919050565b60006108cf826108a2565b9050919050565b60006108e1826108c4565b9050919050565b6108f1816108d6565b82525050565b600060208201905061090c60008301846108e8565b92915050565b600061091d82610878565b9050919050565b61092d81610912565b811461093857600080fd5b50565b60008135905061094a81610924565b92915050565b6000806000806080858703121561096a576109696106f0565b5b60006109788782880161093b565b945050602085013567ffffffffffffffff811115610999576109986106f5565b5b6109a587828801610801565b93505060406109b68782880161093b565b92505060606109c78782880161093b565b91505092959194509250565b7f4e487b7100000000000000000000000000000000000000000000000000000000600052602260045260246000fd5b60006002820490506001821680610a1a57607f821691505b60208210811415610a2e57610a2d6109d3565b5b50919050565b610a3d81610912565b82525050565b6000606082019050610a586000830186610a34565b610a656020830185610a34565b610a726040830184610a34565b949350505050565b60008115159050919050565b610a8f81610a7a565b8114610a9a57600080fd5b50565b600081519050610aac81610a86565b92915050565b600060208284031215610ac857610ac76106f0565b5b6000610ad684828501610a9d565b91505092915050565b7f4e6f20636f6e6e656374696f6e20666f756e6400000000000000000000000000600082015250565b6000610b15601383610636565b9150610b2082610adf565b602082019050919050565b60006020820190508181036000830152610b4481610b08565b9050919050565b7f4e487b7100000000000000000000000000000000000000000000000000000000600052601160045260246000fd5b6000819050919050565b6000610b8f82610b7a565b91507fffffffffffffffffffffffffffffffffffffffffffffffffffffffffffffffff821415610bc257610bc1610b4b565b5b60018201905091905056fea264697066735822122032453f98fc6257480b4b6f5c0608582a86946f13365142d4f69b5f637619b61a64736f6c634300080b0033",
  "immutableReferences": {},
  "source": "// SPDX-License-Identifier: Cabal\npragma solidity ^0.8.0;\n\nimport \"./Oath.sol\";\n\ncontract DataType {\n    string public name;\n    Oath public oath_instance;\n\n    struct Request {\n        uint256 count;\n        mapping(uint256 => string) reasons; //reasons why app asked for this data\n    }\n\n    struct Data {\n        mapping(address => Request) services;\n        string savedData; //the location the data is saved\n    }\n\n    mapping(address => Data) users;\n\n    constructor(string memory _name, address _oath_address) {\n        name = _name;\n        oath_instance = Oath(_oath_address);\n        \n    }\n\n    function _addData(string memory savedData) public {\n        users[msg.sender].savedData = savedData;\n    }\n\n    function _fetch(\n        address user_wallet,\n        string memory reason,\n        address data_type_address,\n        address provider_address\n    ) public returns (string memory) {\n        if (msg.sender == user_wallet) {\n            return (users[user_wallet].savedData);\n        } else {\n            Oath new_oath_instance = Oath(provider_address);\n            require(\n                new_oath_instance.checkConnection(user_wallet, data_type_address, msg.sender),\n                \"No connection found\"\n            );\n            Request storage request = users[user_wallet].services[msg.sender];\n            if (msg.sender != user_wallet) {\n                request.count++;\n                request.reasons[request.count] = reason;\n            }\n            return (users[user_wallet].savedData);\n        }\n    }\n}\n",
  "sourcePath": "/Users/samuelschmitt/Documents/Easy Access/Quae Folders/Quae Repos/Cabal-ETHNYC/cabal-contracts/contracts/DataType.sol",
  "compiler": {
    "name": "solc",
    "version": "0.8.11+commit.d7f03943.Emscripten.clang"
  },
  "schemaVersion": "3.4.4",
  "updatedAt": "2022-06-26T06:33:20.737Z",
  "devdoc": {
    "kind": "dev",
    "methods": {},
    "version": 1
  },
  "userdoc": {
    "kind": "user",
    "methods": {},
    "version": 1
  }
}