{
  "contractName": "DataType",
  "abi": [
    {
      "inputs": [
        {
          "internalType": "string",
          "name": "_name",
          "type": "string"
        }
      ],
      "stateMutability": "nonpayable",
      "type": "constructor"
    },
    {
      "inputs": [],
      "name": "name",
      "outputs": [
        {
          "internalType": "string",
          "name": "",
          "type": "string"
        }
      ],
      "stateMutability": "view",
      "type": "function"
    },
    {
      "inputs": [
        {
          "internalType": "string",
          "name": "savedData",
          "type": "string"
        }
      ],
      "name": "_addData",
      "outputs": [],
      "stateMutability": "nonpayable",
      "type": "function"
    },
    {
      "inputs": [
        {
          "internalType": "address",
          "name": "user_wallet",
          "type": "address"
        },
        {
          "internalType": "string",
          "name": "reason",
          "type": "string"
        },
        {
          "internalType": "contract Oath",
          "name": "conProv",
          "type": "address"
        }
      ],
      "name": "_fetch",
      "outputs": [
        {
          "internalType": "string",
          "name": "",
          "type": "string"
        }
      ],
      "stateMutability": "nonpayable",
      "type": "function"
    }
  ],
  "bytecode": "0x60806040523480156200001157600080fd5b5060405162000db738038062000db78339818101604052810190620000379190620002a4565b80600090805190602001906200004f92919062000057565b50506200035a565b828054620000659062000324565b90600052602060002090601f016020900481019282620000895760008555620000d5565b82601f10620000a457805160ff1916838001178555620000d5565b82800160010185558215620000d5579182015b82811115620000d4578251825591602001919060010190620000b7565b5b509050620000e49190620000e8565b5090565b5b8082111562000103576000816000905550600101620000e9565b5090565b6000604051905090565b600080fd5b600080fd5b600080fd5b600080fd5b6000601f19601f8301169050919050565b7f4e487b7100000000000000000000000000000000000000000000000000000000600052604160045260246000fd5b620001708262000125565b810181811067ffffffffffffffff8211171562000192576200019162000136565b5b80604052505050565b6000620001a762000107565b9050620001b5828262000165565b919050565b600067ffffffffffffffff821115620001d857620001d762000136565b5b620001e38262000125565b9050602081019050919050565b60005b8381101562000210578082015181840152602081019050620001f3565b8381111562000220576000848401525b50505050565b60006200023d6200023784620001ba565b6200019b565b9050828152602081018484840111156200025c576200025b62000120565b5b62000269848285620001f0565b509392505050565b600082601f8301126200028957620002886200011b565b5b81516200029b84826020860162000226565b91505092915050565b600060208284031215620002bd57620002bc62000111565b5b600082015167ffffffffffffffff811115620002de57620002dd62000116565b5b620002ec8482850162000271565b91505092915050565b7f4e487b7100000000000000000000000000000000000000000000000000000000600052602260045260246000fd5b600060028204905060018216806200033d57607f821691505b60208210811415620003545762000353620002f5565b5b50919050565b610a4d806200036a6000396000f3fe608060405234801561001057600080fd5b50600436106100415760003560e01c806306fdde03146100465780630db7dc39146100645780631d8a45c114610094575b600080fd5b61004e6100b0565b60405161005b919061056c565b60405180910390f35b61007e60048036038101906100799190610773565b61013e565b60405161008b919061056c565b60405180910390f35b6100ae60048036038101906100a991906107e2565b6103d6565b005b600080546100bd9061085a565b80601f01602080910402602001604051908101604052809291908181526020018280546100e99061085a565b80156101365780601f1061010b57610100808354040283529160200191610136565b820191906000526020600020905b81548152906001019060200180831161011957829003601f168201915b505050505081565b6060600015158273ffffffffffffffffffffffffffffffffffffffff16634265527986306040518363ffffffff1660e01b815260040161017f92919061089b565b602060405180830381865afa15801561019c573d6000803e3d6000fd5b505050506040513d601f19601f820116820180604052508101906101c091906108fc565b151514610202576040517f08c379a00000000000000000000000000000000000000000000000000000000081526004016101f990610975565b60405180910390fd5b6000600160008673ffffffffffffffffffffffffffffffffffffffff1673ffffffffffffffffffffffffffffffffffffffff16815260200190815260200160002060000160003373ffffffffffffffffffffffffffffffffffffffff1673ffffffffffffffffffffffffffffffffffffffff16815260200190815260200160002090508473ffffffffffffffffffffffffffffffffffffffff163373ffffffffffffffffffffffffffffffffffffffff1614610301578060000160008154809291906102cd906109ce565b9190505550838160010160008360000154815260200190815260200160002090805190602001906102ff929190610430565b505b600160008673ffffffffffffffffffffffffffffffffffffffff1673ffffffffffffffffffffffffffffffffffffffff168152602001908152602001600020600101805461034e9061085a565b80601f016020809104026020016040519081016040528092919081815260200182805461037a9061085a565b80156103c75780601f1061039c576101008083540402835291602001916103c7565b820191906000526020600020905b8154815290600101906020018083116103aa57829003601f168201915b50505050509150509392505050565b80600160003373ffffffffffffffffffffffffffffffffffffffff1673ffffffffffffffffffffffffffffffffffffffff168152602001908152602001600020600101908051906020019061042c929190610430565b5050565b82805461043c9061085a565b90600052602060002090601f01602090048101928261045e57600085556104a5565b82601f1061047757805160ff19168380011785556104a5565b828001600101855582156104a5579182015b828111156104a4578251825591602001919060010190610489565b5b5090506104b291906104b6565b5090565b5b808211156104cf5760008160009055506001016104b7565b5090565b600081519050919050565b600082825260208201905092915050565b60005b8381101561050d5780820151818401526020810190506104f2565b8381111561051c576000848401525b50505050565b6000601f19601f8301169050919050565b600061053e826104d3565b61054881856104de565b93506105588185602086016104ef565b61056181610522565b840191505092915050565b600060208201905081810360008301526105868184610533565b905092915050565b6000604051905090565b600080fd5b600080fd5b600073ffffffffffffffffffffffffffffffffffffffff82169050919050565b60006105cd826105a2565b9050919050565b6105dd816105c2565b81146105e857600080fd5b50565b6000813590506105fa816105d4565b92915050565b600080fd5b600080fd5b7f4e487b7100000000000000000000000000000000000000000000000000000000600052604160045260246000fd5b61064282610522565b810181811067ffffffffffffffff821117156106615761066061060a565b5b80604052505050565b600061067461058e565b90506106808282610639565b919050565b600067ffffffffffffffff8211156106a05761069f61060a565b5b6106a982610522565b9050602081019050919050565b82818337600083830152505050565b60006106d86106d384610685565b61066a565b9050828152602081018484840111156106f4576106f3610605565b5b6106ff8482856106b6565b509392505050565b600082601f83011261071c5761071b610600565b5b813561072c8482602086016106c5565b91505092915050565b6000610740826105c2565b9050919050565b61075081610735565b811461075b57600080fd5b50565b60008135905061076d81610747565b92915050565b60008060006060848603121561078c5761078b610598565b5b600061079a868287016105eb565b935050602084013567ffffffffffffffff8111156107bb576107ba61059d565b5b6107c786828701610707565b92505060406107d88682870161075e565b9150509250925092565b6000602082840312156107f8576107f7610598565b5b600082013567ffffffffffffffff8111156108165761081561059d565b5b61082284828501610707565b91505092915050565b7f4e487b7100000000000000000000000000000000000000000000000000000000600052602260045260246000fd5b6000600282049050600182168061087257607f821691505b602082108114156108865761088561082b565b5b50919050565b610895816105c2565b82525050565b60006040820190506108b0600083018561088c565b6108bd602083018461088c565b9392505050565b60008115159050919050565b6108d9816108c4565b81146108e457600080fd5b50565b6000815190506108f6816108d0565b92915050565b60006020828403121561091257610911610598565b5b6000610920848285016108e7565b91505092915050565b7f4e6f20636f6e6e656374696f6e20666f756e6400000000000000000000000000600082015250565b600061095f6013836104de565b915061096a82610929565b602082019050919050565b6000602082019050818103600083015261098e81610952565b9050919050565b7f4e487b7100000000000000000000000000000000000000000000000000000000600052601160045260246000fd5b6000819050919050565b60006109d9826109c4565b91507fffffffffffffffffffffffffffffffffffffffffffffffffffffffffffffffff821415610a0c57610a0b610995565b5b60018201905091905056fea264697066735822122032232f535832f8ea1b285449cdf2b77e5341d47f115667a9673ab9506f3943f664736f6c634300080b0033",
  "immutableReferences": {},
  "source": "// SPDX-License-Identifier: Cabal\npragma solidity ^0.8.0;\n\nimport \"./Oath.sol\";\n\ncontract DataType {\n    string public name;\n\n    struct Request {\n        uint256 count;\n        mapping(uint256 => string) reasons; //reasons why app asked for this data\n    }\n\n    struct Data {\n        mapping(address => Request) services;\n        string savedData; //the location the data is saved\n    }\n\n    mapping(address => Data) users;\n\n    constructor(string memory _name) {\n        name = _name;\n    }\n\n    function _addData(string memory savedData) public {\n        users[msg.sender].savedData = savedData;\n    }\n\n    function _fetch(address user_wallet, string memory reason, Oath conProv)\n        public\n        returns (string memory)\n    {\n        require(\n            conProv.checkConnection(user_wallet, address(this)) == false,\n            \"No connection found\"\n        );\n        Request storage request = users[user_wallet].services[msg.sender];\n        if (msg.sender != user_wallet) {\n            request.count++;\n            request.reasons[request.count] = reason;\n        }\n        return (users[user_wallet].savedData);\n    }\n}\n",
  "sourcePath": "/Users/mast/Projects/ETHNYC/Cabal-ETHNYC/cabal-contracts/contracts/DataType.sol",
  "compiler": {
    "name": "solc",
    "version": "0.8.11+commit.d7f03943.Emscripten.clang"
  },
  "schemaVersion": "3.4.5",
  "updatedAt": "2022-06-26T05:22:37.794Z",
  "devdoc": {
    "kind": "dev",
    "methods": {},
    "version": 1
  },
  "userdoc": {
    "kind": "user",
    "methods": {},
    "version": 1
  }
}