{
  "contractName": "DataTypeW",
  "abi": [
    {
      "inputs": [
        {
          "internalType": "address",
          "name": "_oath_address",
          "type": "address"
        }
      ],
      "stateMutability": "nonpayable",
      "type": "constructor"
    },
    {
      "inputs": [
        {
          "internalType": "string",
          "name": "savedData",
          "type": "string"
        }
      ],
      "name": "_addData",
      "outputs": [],
      "stateMutability": "nonpayable",
      "type": "function"
    },
    {
      "inputs": [
        {
          "internalType": "address",
          "name": "user_wallet",
          "type": "address"
        },
        {
          "internalType": "string",
          "name": "reason",
          "type": "string"
        },
        {
          "internalType": "address",
          "name": "data_type_address",
          "type": "address"
        },
        {
          "internalType": "address",
          "name": "provider_address",
          "type": "address"
        }
      ],
      "name": "_fetch",
      "outputs": [
        {
          "internalType": "string",
          "name": "",
          "type": "string"
        }
      ],
      "stateMutability": "nonpayable",
      "type": "function"
    },
    {
      "inputs": [],
      "name": "name",
      "outputs": [
        {
          "internalType": "string",
          "name": "",
          "type": "string"
        }
      ],
      "stateMutability": "view",
      "type": "function",
      "constant": true
    },
    {
      "inputs": [],
      "name": "oath_address",
      "outputs": [
        {
          "internalType": "address",
          "name": "",
          "type": "address"
        }
      ],
      "stateMutability": "view",
      "type": "function",
      "constant": true
    },
    {
      "inputs": [],
      "name": "oath_instance",
      "outputs": [
        {
          "internalType": "contract Oath",
          "name": "",
          "type": "address"
        }
      ],
      "stateMutability": "view",
      "type": "function",
      "constant": true
    },
    {
      "inputs": [],
      "name": "owner",
      "outputs": [
        {
          "internalType": "address",
          "name": "",
          "type": "address"
        }
      ],
      "stateMutability": "view",
      "type": "function",
      "constant": true
    },
    {
      "inputs": [
        {
          "internalType": "string",
          "name": "savedData",
          "type": "string"
        }
      ],
      "name": "addData",
      "outputs": [],
      "stateMutability": "nonpayable",
      "type": "function"
    },
    {
      "inputs": [
        {
          "internalType": "address",
          "name": "user_wallet",
          "type": "address"
        },
        {
          "internalType": "string",
          "name": "reason",
          "type": "string"
        },
        {
          "internalType": "address",
          "name": "provider_address",
          "type": "address"
        }
      ],
      "name": "fetch",
      "outputs": [
        {
          "internalType": "string",
          "name": "",
          "type": "string"
        }
      ],
      "stateMutability": "nonpayable",
      "type": "function"
    }
  ],
  "bytecode": "0x60806040523480156200001157600080fd5b50604051620010da380380620010da83398181016040528101906200003791906200026d565b6040518060400160405280600981526020017f576f726c64436f696e00000000000000000000000000000000000000000000008152508181600090805190602001906200008692919062000153565b5080600160006101000a81548173ffffffffffffffffffffffffffffffffffffffff021916908373ffffffffffffffffffffffffffffffffffffffff160217905550505033600360006101000a81548173ffffffffffffffffffffffffffffffffffffffff021916908373ffffffffffffffffffffffffffffffffffffffff16021790555080600460006101000a81548173ffffffffffffffffffffffffffffffffffffffff021916908373ffffffffffffffffffffffffffffffffffffffff1602179055505062000304565b8280546200016190620002ce565b90600052602060002090601f016020900481019282620001855760008555620001d1565b82601f10620001a057805160ff1916838001178555620001d1565b82800160010185558215620001d1579182015b82811115620001d0578251825591602001919060010190620001b3565b5b509050620001e09190620001e4565b5090565b5b80821115620001ff576000816000905550600101620001e5565b5090565b600080fd5b600073ffffffffffffffffffffffffffffffffffffffff82169050919050565b6000620002358262000208565b9050919050565b620002478162000228565b81146200025357600080fd5b50565b60008151905062000267816200023c565b92915050565b60006020828403121562000286576200028562000203565b5b6000620002968482850162000256565b91505092915050565b7f4e487b7100000000000000000000000000000000000000000000000000000000600052602260045260246000fd5b60006002820490506001821680620002e757607f821691505b60208210811415620002fe57620002fd6200029f565b5b50919050565b610dc680620003146000396000f3fe608060405234801561001057600080fd5b50600436106100885760003560e01c8063d15a29081161005b578063d15a290814610103578063d4a2498d14610133578063e7c1abc31461014f578063f701ab451461016d57610088565b806306fdde031461008d5780631d8a45c1146100ab57806376e307e3146100c75780638da5cb5b146100e5575b600080fd5b61009561019d565b6040516100a291906107fd565b60405180910390f35b6100c560048036038101906100c09190610968565b61022b565b005b6100cf610285565b6040516100dc9190610a30565b60405180910390f35b6100ed6102ab565b6040516100fa9190610a6c565b60405180910390f35b61011d60048036038101906101189190610ab3565b6102d1565b60405161012a91906107fd565b60405180910390f35b61014d60048036038101906101489190610968565b610672565b005b61015761067e565b6040516101649190610a6c565b60405180910390f35b61018760048036038101906101829190610b36565b6106a4565b60405161019491906107fd565b60405180910390f35b600080546101aa90610bd4565b80601f01602080910402602001604051908101604052809291908181526020018280546101d690610bd4565b80156102235780601f106101f857610100808354040283529160200191610223565b820191906000526020600020905b81548152906001019060200180831161020657829003601f168201915b505050505081565b80600260003373ffffffffffffffffffffffffffffffffffffffff1673ffffffffffffffffffffffffffffffffffffffff16815260200190815260200160002060010190805190602001906102819291906106c1565b5050565b600160009054906101000a900473ffffffffffffffffffffffffffffffffffffffff1681565b600360009054906101000a900473ffffffffffffffffffffffffffffffffffffffff1681565b60608473ffffffffffffffffffffffffffffffffffffffff163373ffffffffffffffffffffffffffffffffffffffff1614156103d957600260008673ffffffffffffffffffffffffffffffffffffffff1673ffffffffffffffffffffffffffffffffffffffff168152602001908152602001600020600101805461035490610bd4565b80601f016020809104026020016040519081016040528092919081815260200182805461038090610bd4565b80156103cd5780601f106103a2576101008083540402835291602001916103cd565b820191906000526020600020905b8154815290600101906020018083116103b057829003601f168201915b5050505050905061066a565b60008290508073ffffffffffffffffffffffffffffffffffffffff1663d51ab8608786336040518463ffffffff1660e01b815260040161041b93929190610c06565b602060405180830381865afa158015610438573d6000803e3d6000fd5b505050506040513d601f19601f8201168201806040525081019061045c9190610c75565b61049b576040517f08c379a000000000000000000000000000000000000000000000000000000000815260040161049290610cee565b60405180910390fd5b6000600260008873ffffffffffffffffffffffffffffffffffffffff1673ffffffffffffffffffffffffffffffffffffffff16815260200190815260200160002060000160003373ffffffffffffffffffffffffffffffffffffffff1673ffffffffffffffffffffffffffffffffffffffff16815260200190815260200160002090508673ffffffffffffffffffffffffffffffffffffffff163373ffffffffffffffffffffffffffffffffffffffff161461059a5780600001600081548092919061056690610d47565b9190505550858160010160008360000154815260200190815260200160002090805190602001906105989291906106c1565b505b600260008873ffffffffffffffffffffffffffffffffffffffff1673ffffffffffffffffffffffffffffffffffffffff16815260200190815260200160002060010180546105e790610bd4565b80601f016020809104026020016040519081016040528092919081815260200182805461061390610bd4565b80156106605780601f1061063557610100808354040283529160200191610660565b820191906000526020600020905b81548152906001019060200180831161064357829003601f168201915b5050505050925050505b949350505050565b61067b8161022b565b50565b600460009054906101000a900473ffffffffffffffffffffffffffffffffffffffff1681565b606060006106b4858530866102d1565b9050809150509392505050565b8280546106cd90610bd4565b90600052602060002090601f0160209004810192826106ef5760008555610736565b82601f1061070857805160ff1916838001178555610736565b82800160010185558215610736579182015b8281111561073557825182559160200191906001019061071a565b5b5090506107439190610747565b5090565b5b80821115610760576000816000905550600101610748565b5090565b600081519050919050565b600082825260208201905092915050565b60005b8381101561079e578082015181840152602081019050610783565b838111156107ad576000848401525b50505050565b6000601f19601f8301169050919050565b60006107cf82610764565b6107d9818561076f565b93506107e9818560208601610780565b6107f2816107b3565b840191505092915050565b6000602082019050818103600083015261081781846107c4565b905092915050565b6000604051905090565b600080fd5b600080fd5b600080fd5b600080fd5b7f4e487b7100000000000000000000000000000000000000000000000000000000600052604160045260246000fd5b610875826107b3565b810181811067ffffffffffffffff821117156108945761089361083d565b5b80604052505050565b60006108a761081f565b90506108b3828261086c565b919050565b600067ffffffffffffffff8211156108d3576108d261083d565b5b6108dc826107b3565b9050602081019050919050565b82818337600083830152505050565b600061090b610906846108b8565b61089d565b90508281526020810184848401111561092757610926610838565b5b6109328482856108e9565b509392505050565b600082601f83011261094f5761094e610833565b5b813561095f8482602086016108f8565b91505092915050565b60006020828403121561097e5761097d610829565b5b600082013567ffffffffffffffff81111561099c5761099b61082e565b5b6109a88482850161093a565b91505092915050565b600073ffffffffffffffffffffffffffffffffffffffff82169050919050565b6000819050919050565b60006109f66109f16109ec846109b1565b6109d1565b6109b1565b9050919050565b6000610a08826109db565b9050919050565b6000610a1a826109fd565b9050919050565b610a2a81610a0f565b82525050565b6000602082019050610a456000830184610a21565b92915050565b6000610a56826109b1565b9050919050565b610a6681610a4b565b82525050565b6000602082019050610a816000830184610a5d565b92915050565b610a9081610a4b565b8114610a9b57600080fd5b50565b600081359050610aad81610a87565b92915050565b60008060008060808587031215610acd57610acc610829565b5b6000610adb87828801610a9e565b945050602085013567ffffffffffffffff811115610afc57610afb61082e565b5b610b088782880161093a565b9350506040610b1987828801610a9e565b9250506060610b2a87828801610a9e565b91505092959194509250565b600080600060608486031215610b4f57610b4e610829565b5b6000610b5d86828701610a9e565b935050602084013567ffffffffffffffff811115610b7e57610b7d61082e565b5b610b8a8682870161093a565b9250506040610b9b86828701610a9e565b9150509250925092565b7f4e487b7100000000000000000000000000000000000000000000000000000000600052602260045260246000fd5b60006002820490506001821680610bec57607f821691505b60208210811415610c0057610bff610ba5565b5b50919050565b6000606082019050610c1b6000830186610a5d565b610c286020830185610a5d565b610c356040830184610a5d565b949350505050565b60008115159050919050565b610c5281610c3d565b8114610c5d57600080fd5b50565b600081519050610c6f81610c49565b92915050565b600060208284031215610c8b57610c8a610829565b5b6000610c9984828501610c60565b91505092915050565b7f4e6f20636f6e6e656374696f6e20666f756e6400000000000000000000000000600082015250565b6000610cd860138361076f565b9150610ce382610ca2565b602082019050919050565b60006020820190508181036000830152610d0781610ccb565b9050919050565b7f4e487b7100000000000000000000000000000000000000000000000000000000600052601160045260246000fd5b6000819050919050565b6000610d5282610d3d565b91507fffffffffffffffffffffffffffffffffffffffffffffffffffffffffffffffff821415610d8557610d84610d0e565b5b60018201905091905056fea264697066735822122068ca73cd9f35480ad4a263fff81730ab5c2f4de3bd12b2c24e78611309d5647e64736f6c634300080b0033",
  "immutableReferences": {},
  "source": "// SPDX-License-Identifier: Cabal\npragma solidity ^0.8.0;\n\nimport \"./DataType.sol\";\nimport \"./Oath.sol\";\n\ncontract DataTypeW is DataType {\n    address public owner;\n    address public oath_address;\n\n    constructor(address _oath_address) DataType(\"WorldCoin\", _oath_address) {\n        owner = msg.sender;\n        oath_address = _oath_address;\n        \n    }\n\n\n    function addData(string memory savedData) public {\n        _addData(savedData);\n    }\n\n    function fetch(address user_wallet, string memory reason, address provider_address)\n        public\n        returns (string memory)\n    {\n        string memory a = _fetch(user_wallet, reason, address(this),provider_address);\n        return a;\n    }\n}",
  "sourcePath": "/Users/samuelschmitt/Documents/Easy Access/Quae Folders/Quae Repos/Cabal-ETHNYC/cabal-contracts/contracts/DataTypeW.sol",
  "compiler": {
    "name": "solc",
    "version": "0.8.11+commit.d7f03943.Emscripten.clang"
  },
  "schemaVersion": "3.4.4",
  "updatedAt": "2022-06-26T06:34:07.013Z",
  "networkType": "ethereum",
  "devdoc": {
    "kind": "dev",
    "methods": {},
    "version": 1
  },
  "userdoc": {
    "kind": "user",
    "methods": {},
    "version": 1
  }
}