{
  "contractName": "DataTypeW",
  "abi": [
    {
      "inputs": [
        {
          "internalType": "address",
          "name": "oath_address",
          "type": "address"
        }
      ],
      "stateMutability": "nonpayable",
      "type": "constructor"
    },
    {
      "inputs": [
        {
          "internalType": "string",
          "name": "savedData",
          "type": "string"
        }
      ],
      "name": "_addData",
      "outputs": [],
      "stateMutability": "nonpayable",
      "type": "function"
    },
    {
      "inputs": [
        {
          "internalType": "address",
          "name": "user_wallet",
          "type": "address"
        },
        {
          "internalType": "string",
          "name": "reason",
          "type": "string"
        },
        {
          "internalType": "contract Oath",
          "name": "conProv",
          "type": "address"
        }
      ],
      "name": "_fetch",
      "outputs": [
        {
          "internalType": "string",
          "name": "",
          "type": "string"
        }
      ],
      "stateMutability": "nonpayable",
      "type": "function"
    },
    {
      "inputs": [],
      "name": "name",
      "outputs": [
        {
          "internalType": "string",
          "name": "",
          "type": "string"
        }
      ],
      "stateMutability": "view",
      "type": "function"
    },
    {
      "inputs": [],
      "name": "oathInstance",
      "outputs": [
        {
          "internalType": "contract Oath",
          "name": "",
          "type": "address"
        }
      ],
      "stateMutability": "view",
      "type": "function"
    },
    {
      "inputs": [],
      "name": "owner",
      "outputs": [
        {
          "internalType": "address",
          "name": "",
          "type": "address"
        }
      ],
      "stateMutability": "view",
      "type": "function"
    },
    {
      "inputs": [
        {
          "internalType": "string",
          "name": "savedData",
          "type": "string"
        }
      ],
      "name": "addData",
      "outputs": [],
      "stateMutability": "nonpayable",
      "type": "function"
    },
    {
      "inputs": [
        {
          "internalType": "address",
          "name": "user_wallet",
          "type": "address"
        },
        {
          "internalType": "string",
          "name": "reason",
          "type": "string"
        }
      ],
      "name": "fetch",
      "outputs": [],
      "stateMutability": "nonpayable",
      "type": "function"
    }
  ],
  "bytecode": "0x60806040523480156200001157600080fd5b5060405162000f4938038062000f4983398181016040528101906200003791906200022a565b6040518060400160405280600981526020017f576f726c64436f696e000000000000000000000000000000000000000000000081525080600090805190602001906200008592919062000110565b505033600260006101000a81548173ffffffffffffffffffffffffffffffffffffffff021916908373ffffffffffffffffffffffffffffffffffffffff16021790555080600360006101000a81548173ffffffffffffffffffffffffffffffffffffffff021916908373ffffffffffffffffffffffffffffffffffffffff16021790555050620002c1565b8280546200011e906200028b565b90600052602060002090601f0160209004810192826200014257600085556200018e565b82601f106200015d57805160ff19168380011785556200018e565b828001600101855582156200018e579182015b828111156200018d57825182559160200191906001019062000170565b5b5090506200019d9190620001a1565b5090565b5b80821115620001bc576000816000905550600101620001a2565b5090565b600080fd5b600073ffffffffffffffffffffffffffffffffffffffff82169050919050565b6000620001f282620001c5565b9050919050565b6200020481620001e5565b81146200021057600080fd5b50565b6000815190506200022481620001f9565b92915050565b600060208284031215620002435762000242620001c0565b5b6000620002538482850162000213565b91505092915050565b7f4e487b7100000000000000000000000000000000000000000000000000000000600052602260045260246000fd5b60006002820490506001821680620002a457607f821691505b60208210811415620002bb57620002ba6200025c565b5b50919050565b610c7880620002d16000396000f3fe608060405234801561001057600080fd5b506004361061007d5760003560e01c80638da5cb5b1161005b5780638da5cb5b146100ec578063a1e898be1461010a578063d4a2498d14610126578063f8243c20146101425761007d565b806306fdde03146100825780630db7dc39146100a05780631d8a45c1146100d0575b600080fd5b61008a610160565b60405161009791906106a6565b60405180910390f35b6100ba60048036038101906100b591906108ad565b6101ee565b6040516100c791906106a6565b60405180910390f35b6100ea60048036038101906100e5919061091c565b610486565b005b6100f46104e0565b6040516101019190610974565b60405180910390f35b610124600480360381019061011f919061098f565b610506565b005b610140600480360381019061013b919061091c565b610538565b005b61014a610544565b6040516101579190610a4a565b60405180910390f35b6000805461016d90610a94565b80601f016020809104026020016040519081016040528092919081815260200182805461019990610a94565b80156101e65780601f106101bb576101008083540402835291602001916101e6565b820191906000526020600020905b8154815290600101906020018083116101c957829003601f168201915b505050505081565b6060600015158273ffffffffffffffffffffffffffffffffffffffff16634265527986306040518363ffffffff1660e01b815260040161022f929190610ac6565b602060405180830381865afa15801561024c573d6000803e3d6000fd5b505050506040513d601f19601f820116820180604052508101906102709190610b27565b1515146102b2576040517f08c379a00000000000000000000000000000000000000000000000000000000081526004016102a990610ba0565b60405180910390fd5b6000600160008673ffffffffffffffffffffffffffffffffffffffff1673ffffffffffffffffffffffffffffffffffffffff16815260200190815260200160002060000160003373ffffffffffffffffffffffffffffffffffffffff1673ffffffffffffffffffffffffffffffffffffffff16815260200190815260200160002090508473ffffffffffffffffffffffffffffffffffffffff163373ffffffffffffffffffffffffffffffffffffffff16146103b15780600001600081548092919061037d90610bf9565b9190505550838160010160008360000154815260200190815260200160002090805190602001906103af92919061056a565b505b600160008673ffffffffffffffffffffffffffffffffffffffff1673ffffffffffffffffffffffffffffffffffffffff16815260200190815260200160002060010180546103fe90610a94565b80601f016020809104026020016040519081016040528092919081815260200182805461042a90610a94565b80156104775780601f1061044c57610100808354040283529160200191610477565b820191906000526020600020905b81548152906001019060200180831161045a57829003601f168201915b50505050509150509392505050565b80600160003373ffffffffffffffffffffffffffffffffffffffff1673ffffffffffffffffffffffffffffffffffffffff16815260200190815260200160002060010190805190602001906104dc92919061056a565b5050565b600260009054906101000a900473ffffffffffffffffffffffffffffffffffffffff1681565b6105338282600360009054906101000a900473ffffffffffffffffffffffffffffffffffffffff166101ee565b505050565b61054181610486565b50565b600360009054906101000a900473ffffffffffffffffffffffffffffffffffffffff1681565b82805461057690610a94565b90600052602060002090601f01602090048101928261059857600085556105df565b82601f106105b157805160ff19168380011785556105df565b828001600101855582156105df579182015b828111156105de5782518255916020019190600101906105c3565b5b5090506105ec91906105f0565b5090565b5b808211156106095760008160009055506001016105f1565b5090565b600081519050919050565b600082825260208201905092915050565b60005b8381101561064757808201518184015260208101905061062c565b83811115610656576000848401525b50505050565b6000601f19601f8301169050919050565b60006106788261060d565b6106828185610618565b9350610692818560208601610629565b61069b8161065c565b840191505092915050565b600060208201905081810360008301526106c0818461066d565b905092915050565b6000604051905090565b600080fd5b600080fd5b600073ffffffffffffffffffffffffffffffffffffffff82169050919050565b6000610707826106dc565b9050919050565b610717816106fc565b811461072257600080fd5b50565b6000813590506107348161070e565b92915050565b600080fd5b600080fd5b7f4e487b7100000000000000000000000000000000000000000000000000000000600052604160045260246000fd5b61077c8261065c565b810181811067ffffffffffffffff8211171561079b5761079a610744565b5b80604052505050565b60006107ae6106c8565b90506107ba8282610773565b919050565b600067ffffffffffffffff8211156107da576107d9610744565b5b6107e38261065c565b9050602081019050919050565b82818337600083830152505050565b600061081261080d846107bf565b6107a4565b90508281526020810184848401111561082e5761082d61073f565b5b6108398482856107f0565b509392505050565b600082601f8301126108565761085561073a565b5b81356108668482602086016107ff565b91505092915050565b600061087a826106fc565b9050919050565b61088a8161086f565b811461089557600080fd5b50565b6000813590506108a781610881565b92915050565b6000806000606084860312156108c6576108c56106d2565b5b60006108d486828701610725565b935050602084013567ffffffffffffffff8111156108f5576108f46106d7565b5b61090186828701610841565b925050604061091286828701610898565b9150509250925092565b600060208284031215610932576109316106d2565b5b600082013567ffffffffffffffff8111156109505761094f6106d7565b5b61095c84828501610841565b91505092915050565b61096e816106fc565b82525050565b60006020820190506109896000830184610965565b92915050565b600080604083850312156109a6576109a56106d2565b5b60006109b485828601610725565b925050602083013567ffffffffffffffff8111156109d5576109d46106d7565b5b6109e185828601610841565b9150509250929050565b6000819050919050565b6000610a10610a0b610a06846106dc565b6109eb565b6106dc565b9050919050565b6000610a22826109f5565b9050919050565b6000610a3482610a17565b9050919050565b610a4481610a29565b82525050565b6000602082019050610a5f6000830184610a3b565b92915050565b7f4e487b7100000000000000000000000000000000000000000000000000000000600052602260045260246000fd5b60006002820490506001821680610aac57607f821691505b60208210811415610ac057610abf610a65565b5b50919050565b6000604082019050610adb6000830185610965565b610ae86020830184610965565b9392505050565b60008115159050919050565b610b0481610aef565b8114610b0f57600080fd5b50565b600081519050610b2181610afb565b92915050565b600060208284031215610b3d57610b3c6106d2565b5b6000610b4b84828501610b12565b91505092915050565b7f4e6f20636f6e6e656374696f6e20666f756e6400000000000000000000000000600082015250565b6000610b8a601383610618565b9150610b9582610b54565b602082019050919050565b60006020820190508181036000830152610bb981610b7d565b9050919050565b7f4e487b7100000000000000000000000000000000000000000000000000000000600052601160045260246000fd5b6000819050919050565b6000610c0482610bef565b91507fffffffffffffffffffffffffffffffffffffffffffffffffffffffffffffffff821415610c3757610c36610bc0565b5b60018201905091905056fea26469706673582212209cd992ce8dca8437492b130bdfc0d2a946aeed084ca24b8f61fdb49a8481b27364736f6c634300080b0033",
  "immutableReferences": {},
  "source": "// SPDX-License-Identifier: Cabal\npragma solidity ^0.8.0;\n\nimport \"./DataType.sol\";\nimport \"./Oath.sol\";\n\ncontract DataTypeW is DataType {\n    address public owner;\n    Oath public oathInstance;\n\n    constructor( address oath_address) DataType(\"WorldCoin\") {\n        owner = msg.sender;\n        oathInstance = Oath(oath_address);\n    }\n\n    function addData(string memory savedData) public  {\n\n        _addData(savedData);\n    }\n\n    function fetch(address user_wallet, string memory reason) public {\n        _fetch(user_wallet, reason, oathInstance);\n    }\n\n}",
  "sourcePath": "/Users/mast/Projects/ETHNYC/Cabal-ETHNYC/cabal-contracts/contracts/DataTypeW.sol",
  "compiler": {
    "name": "solc",
    "version": "0.8.11+commit.d7f03943.Emscripten.clang"
  },
  "schemaVersion": "3.4.5",
  "updatedAt": "2022-06-26T05:22:37.797Z",
  "devdoc": {
    "kind": "dev",
    "methods": {},
    "version": 1
  },
  "userdoc": {
    "kind": "user",
    "methods": {},
    "version": 1
  }
}