{
  "contractName": "DataTypeW",
  "abi": [
    {
      "inputs": [
        {
          "internalType": "address",
          "name": "_oath_address",
          "type": "address"
        }
      ],
      "stateMutability": "nonpayable",
      "type": "constructor"
    },
    {
      "inputs": [
        {
          "internalType": "string",
          "name": "savedData",
          "type": "string"
        }
      ],
      "name": "_addData",
      "outputs": [],
      "stateMutability": "nonpayable",
      "type": "function"
    },
    {
      "inputs": [
        {
          "internalType": "address",
          "name": "user_wallet",
          "type": "address"
        },
        {
          "internalType": "string",
          "name": "reason",
          "type": "string"
        },
        {
          "internalType": "address",
          "name": "data_type_address",
          "type": "address"
        }
      ],
      "name": "_fetch",
      "outputs": [
        {
          "internalType": "string",
          "name": "",
          "type": "string"
        }
      ],
      "stateMutability": "nonpayable",
      "type": "function"
    },
    {
      "inputs": [],
      "name": "name",
      "outputs": [
        {
          "internalType": "string",
          "name": "",
          "type": "string"
        }
      ],
      "stateMutability": "view",
      "type": "function"
    },
    {
      "inputs": [],
      "name": "oath_address",
      "outputs": [
        {
          "internalType": "address",
          "name": "",
          "type": "address"
        }
      ],
      "stateMutability": "view",
      "type": "function"
    },
    {
      "inputs": [],
      "name": "oath_instance",
      "outputs": [
        {
          "internalType": "contract Oath",
          "name": "",
          "type": "address"
        }
      ],
      "stateMutability": "view",
      "type": "function"
    },
    {
      "inputs": [],
      "name": "owner",
      "outputs": [
        {
          "internalType": "address",
          "name": "",
          "type": "address"
        }
      ],
      "stateMutability": "view",
      "type": "function"
    },
    {
      "inputs": [
        {
          "internalType": "string",
          "name": "savedData",
          "type": "string"
        }
      ],
      "name": "addData",
      "outputs": [],
      "stateMutability": "nonpayable",
      "type": "function"
    },
    {
      "inputs": [
        {
          "internalType": "address",
          "name": "user_wallet",
          "type": "address"
        },
        {
          "internalType": "string",
          "name": "reason",
          "type": "string"
        }
      ],
      "name": "fetch",
      "outputs": [
        {
          "internalType": "string",
          "name": "",
          "type": "string"
        }
      ],
      "stateMutability": "nonpayable",
      "type": "function"
    }
  ],
  "bytecode": "0x60806040523480156200001157600080fd5b50604051620010bc380380620010bc83398181016040528101906200003791906200026d565b6040518060400160405280600981526020017f576f726c64436f696e00000000000000000000000000000000000000000000008152508181600090805190602001906200008692919062000153565b5080600160006101000a81548173ffffffffffffffffffffffffffffffffffffffff021916908373ffffffffffffffffffffffffffffffffffffffff160217905550505033600360006101000a81548173ffffffffffffffffffffffffffffffffffffffff021916908373ffffffffffffffffffffffffffffffffffffffff16021790555080600460006101000a81548173ffffffffffffffffffffffffffffffffffffffff021916908373ffffffffffffffffffffffffffffffffffffffff1602179055505062000304565b8280546200016190620002ce565b90600052602060002090601f016020900481019282620001855760008555620001d1565b82601f10620001a057805160ff1916838001178555620001d1565b82800160010185558215620001d1579182015b82811115620001d0578251825591602001919060010190620001b3565b5b509050620001e09190620001e4565b5090565b5b80821115620001ff576000816000905550600101620001e5565b5090565b600080fd5b600073ffffffffffffffffffffffffffffffffffffffff82169050919050565b6000620002358262000208565b9050919050565b620002478162000228565b81146200025357600080fd5b50565b60008151905062000267816200023c565b92915050565b60006020828403121562000286576200028562000203565b5b6000620002968482850162000256565b91505092915050565b7f4e487b7100000000000000000000000000000000000000000000000000000000600052602260045260246000fd5b60006002820490506001821680620002e757607f821691505b60208210811415620002fe57620002fd6200029f565b5b50919050565b610da880620003146000396000f3fe608060405234801561001057600080fd5b50600436106100885760003560e01c80638da5cb5b1161005b5780638da5cb5b14610115578063a1e898be14610133578063d4a2498d14610163578063e7c1abc31461017f57610088565b806306fdde031461008d5780630db7dc39146100ab5780631d8a45c1146100db57806376e307e3146100f7575b600080fd5b61009561019d565b6040516100a29190610814565b60405180910390f35b6100c560048036038101906100c091906109dd565b61022b565b6040516100d29190610814565b60405180910390f35b6100f560048036038101906100f09190610a4c565b6105e5565b005b6100ff61063f565b60405161010c9190610af4565b60405180910390f35b61011d610665565b60405161012a9190610b1e565b60405180910390f35b61014d60048036038101906101489190610b39565b61068b565b60405161015a9190610814565b60405180910390f35b61017d60048036038101906101789190610a4c565b6106a6565b005b6101876106b2565b6040516101949190610b1e565b60405180910390f35b600080546101aa90610bc4565b80601f01602080910402602001604051908101604052809291908181526020018280546101d690610bc4565b80156102235780601f106101f857610100808354040283529160200191610223565b820191906000526020600020905b81548152906001019060200180831161020657829003601f168201915b505050505081565b60608373ffffffffffffffffffffffffffffffffffffffff163373ffffffffffffffffffffffffffffffffffffffff16141561033357600260008573ffffffffffffffffffffffffffffffffffffffff1673ffffffffffffffffffffffffffffffffffffffff16815260200190815260200160002060010180546102ae90610bc4565b80601f01602080910402602001604051908101604052809291908181526020018280546102da90610bc4565b80156103275780601f106102fc57610100808354040283529160200191610327565b820191906000526020600020905b81548152906001019060200180831161030a57829003601f168201915b505050505090506105de565b600160009054906101000a900473ffffffffffffffffffffffffffffffffffffffff1673ffffffffffffffffffffffffffffffffffffffff16634265527985846040518363ffffffff1660e01b8152600401610390929190610bf6565b602060405180830381865afa1580156103ad573d6000803e3d6000fd5b505050506040513d601f19601f820116820180604052508101906103d19190610c57565b610410576040517f08c379a000000000000000000000000000000000000000000000000000000000815260040161040790610cd0565b60405180910390fd5b6000600260008673ffffffffffffffffffffffffffffffffffffffff1673ffffffffffffffffffffffffffffffffffffffff16815260200190815260200160002060000160003373ffffffffffffffffffffffffffffffffffffffff1673ffffffffffffffffffffffffffffffffffffffff16815260200190815260200160002090508473ffffffffffffffffffffffffffffffffffffffff163373ffffffffffffffffffffffffffffffffffffffff161461050f578060000160008154809291906104db90610d29565b91905055508381600101600083600001548152602001908152602001600020908051906020019061050d9291906106d8565b505b600260008673ffffffffffffffffffffffffffffffffffffffff1673ffffffffffffffffffffffffffffffffffffffff168152602001908152602001600020600101805461055c90610bc4565b80601f016020809104026020016040519081016040528092919081815260200182805461058890610bc4565b80156105d55780601f106105aa576101008083540402835291602001916105d5565b820191906000526020600020905b8154815290600101906020018083116105b857829003601f168201915b50505050509150505b9392505050565b80600260003373ffffffffffffffffffffffffffffffffffffffff1673ffffffffffffffffffffffffffffffffffffffff168152602001908152602001600020600101908051906020019061063b9291906106d8565b5050565b600160009054906101000a900473ffffffffffffffffffffffffffffffffffffffff1681565b600360009054906101000a900473ffffffffffffffffffffffffffffffffffffffff1681565b6060600061069a84843061022b565b90508091505092915050565b6106af816105e5565b50565b600460009054906101000a900473ffffffffffffffffffffffffffffffffffffffff1681565b8280546106e490610bc4565b90600052602060002090601f016020900481019282610706576000855561074d565b82601f1061071f57805160ff191683800117855561074d565b8280016001018555821561074d579182015b8281111561074c578251825591602001919060010190610731565b5b50905061075a919061075e565b5090565b5b8082111561077757600081600090555060010161075f565b5090565b600081519050919050565b600082825260208201905092915050565b60005b838110156107b557808201518184015260208101905061079a565b838111156107c4576000848401525b50505050565b6000601f19601f8301169050919050565b60006107e68261077b565b6107f08185610786565b9350610800818560208601610797565b610809816107ca565b840191505092915050565b6000602082019050818103600083015261082e81846107db565b905092915050565b6000604051905090565b600080fd5b600080fd5b600073ffffffffffffffffffffffffffffffffffffffff82169050919050565b60006108758261084a565b9050919050565b6108858161086a565b811461089057600080fd5b50565b6000813590506108a28161087c565b92915050565b600080fd5b600080fd5b7f4e487b7100000000000000000000000000000000000000000000000000000000600052604160045260246000fd5b6108ea826107ca565b810181811067ffffffffffffffff82111715610909576109086108b2565b5b80604052505050565b600061091c610836565b905061092882826108e1565b919050565b600067ffffffffffffffff821115610948576109476108b2565b5b610951826107ca565b9050602081019050919050565b82818337600083830152505050565b600061098061097b8461092d565b610912565b90508281526020810184848401111561099c5761099b6108ad565b5b6109a784828561095e565b509392505050565b600082601f8301126109c4576109c36108a8565b5b81356109d484826020860161096d565b91505092915050565b6000806000606084860312156109f6576109f5610840565b5b6000610a0486828701610893565b935050602084013567ffffffffffffffff811115610a2557610a24610845565b5b610a31868287016109af565b9250506040610a4286828701610893565b9150509250925092565b600060208284031215610a6257610a61610840565b5b600082013567ffffffffffffffff811115610a8057610a7f610845565b5b610a8c848285016109af565b91505092915050565b6000819050919050565b6000610aba610ab5610ab08461084a565b610a95565b61084a565b9050919050565b6000610acc82610a9f565b9050919050565b6000610ade82610ac1565b9050919050565b610aee81610ad3565b82525050565b6000602082019050610b096000830184610ae5565b92915050565b610b188161086a565b82525050565b6000602082019050610b336000830184610b0f565b92915050565b60008060408385031215610b5057610b4f610840565b5b6000610b5e85828601610893565b925050602083013567ffffffffffffffff811115610b7f57610b7e610845565b5b610b8b858286016109af565b9150509250929050565b7f4e487b7100000000000000000000000000000000000000000000000000000000600052602260045260246000fd5b60006002820490506001821680610bdc57607f821691505b60208210811415610bf057610bef610b95565b5b50919050565b6000604082019050610c0b6000830185610b0f565b610c186020830184610b0f565b9392505050565b60008115159050919050565b610c3481610c1f565b8114610c3f57600080fd5b50565b600081519050610c5181610c2b565b92915050565b600060208284031215610c6d57610c6c610840565b5b6000610c7b84828501610c42565b91505092915050565b7f4e6f20636f6e6e656374696f6e20666f756e6400000000000000000000000000600082015250565b6000610cba601383610786565b9150610cc582610c84565b602082019050919050565b60006020820190508181036000830152610ce981610cad565b9050919050565b7f4e487b7100000000000000000000000000000000000000000000000000000000600052601160045260246000fd5b6000819050919050565b6000610d3482610d1f565b91507fffffffffffffffffffffffffffffffffffffffffffffffffffffffffffffffff821415610d6757610d66610cf0565b5b60018201905091905056fea26469706673582212207d9e9b295ea11699b288de68185c4de17f84cbfb403a93e4f6e7e42207389ecd64736f6c634300080b0033",
  "immutableReferences": {},
  "source": "// SPDX-License-Identifier: Cabal\npragma solidity ^0.8.0;\n\nimport \"./DataType.sol\";\nimport \"./Oath.sol\";\n\ncontract DataTypeW is DataType {\n    address public owner;\n    address public oath_address;\n\n    constructor(address _oath_address) DataType(\"WorldCoin\", _oath_address) {\n        owner = msg.sender;\n        oath_address = _oath_address;\n    }\n\n\n    function addData(string memory savedData) public {\n        _addData(savedData);\n    }\n\n\n    function fetch(address user_wallet, string memory reason)\n        public\n        returns (string memory)\n    {\n        string memory a = _fetch(user_wallet, reason, address(this));\n        return a;\n    }\n\n}",
  "sourcePath": "/Users/mast/Projects/ETHNYC/Cabal-ETHNYC/cabal-contracts/contracts/DataTypeW.sol",
  "compiler": {
    "name": "solc",
    "version": "0.8.11+commit.d7f03943.Emscripten.clang"
  },
  "schemaVersion": "3.4.5",
  "updatedAt": "2022-06-26T06:24:37.018Z",
  "devdoc": {
    "kind": "dev",
    "methods": {},
    "version": 1
  },
  "userdoc": {
    "kind": "user",
    "methods": {},
    "version": 1
  }
}