{
  "contractName": "Oath",
  "abi": [
    {
      "inputs": [],
      "stateMutability": "nonpayable",
      "type": "constructor"
    },
    {
      "inputs": [
        {
          "internalType": "address",
          "name": "service_wallet",
          "type": "address"
        },
        {
          "internalType": "address",
          "name": "data_type_address",
          "type": "address"
        }
      ],
      "name": "createConnection",
      "outputs": [],
      "stateMutability": "nonpayable",
      "type": "function"
    },
    {
      "inputs": [
        {
          "internalType": "address",
          "name": "service_wallet",
          "type": "address"
        },
        {
          "internalType": "address",
          "name": "data_type_address",
          "type": "address"
        }
      ],
      "name": "revokeConnection",
      "outputs": [],
      "stateMutability": "nonpayable",
      "type": "function"
    },
    {
      "inputs": [
        {
          "internalType": "address",
          "name": "user_wallet",
          "type": "address"
        },
        {
          "internalType": "address",
          "name": "data_type_address",
          "type": "address"
        }
      ],
      "name": "checkConnection",
      "outputs": [
        {
          "internalType": "bool",
          "name": "",
          "type": "bool"
        }
      ],
      "stateMutability": "view",
      "type": "function"
    }
  ],
  "bytecode": "0x608060405234801561001057600080fd5b50336000806101000a81548173ffffffffffffffffffffffffffffffffffffffff021916908373ffffffffffffffffffffffffffffffffffffffff160217905550610439806100606000396000f3fe608060405234801561001057600080fd5b50600436106100415760003560e01c8063426552791461004657806382dbf143146100765780638f8d7f7e14610092575b600080fd5b610060600480360381019061005b919061038d565b6100ae565b60405161006d91906103e8565b60405180910390f35b610090600480360381019061008b919061038d565b61017f565b005b6100ac60048036038101906100a7919061038d565b610255565b005b6000600160008473ffffffffffffffffffffffffffffffffffffffff1673ffffffffffffffffffffffffffffffffffffffff16815260200190815260200160002060003373ffffffffffffffffffffffffffffffffffffffff1673ffffffffffffffffffffffffffffffffffffffff16815260200190815260200160002060008373ffffffffffffffffffffffffffffffffffffffff1673ffffffffffffffffffffffffffffffffffffffff16815260200190815260200160002060009054906101000a900460ff16905092915050565b6000600160003373ffffffffffffffffffffffffffffffffffffffff1673ffffffffffffffffffffffffffffffffffffffff16815260200190815260200160002060008473ffffffffffffffffffffffffffffffffffffffff1673ffffffffffffffffffffffffffffffffffffffff16815260200190815260200160002060008373ffffffffffffffffffffffffffffffffffffffff1673ffffffffffffffffffffffffffffffffffffffff16815260200190815260200160002060006101000a81548160ff0219169083151502179055505050565b60018060003373ffffffffffffffffffffffffffffffffffffffff1673ffffffffffffffffffffffffffffffffffffffff16815260200190815260200160002060008473ffffffffffffffffffffffffffffffffffffffff1673ffffffffffffffffffffffffffffffffffffffff16815260200190815260200160002060008373ffffffffffffffffffffffffffffffffffffffff1673ffffffffffffffffffffffffffffffffffffffff16815260200190815260200160002060006101000a81548160ff0219169083151502179055505050565b600080fd5b600073ffffffffffffffffffffffffffffffffffffffff82169050919050565b600061035a8261032f565b9050919050565b61036a8161034f565b811461037557600080fd5b50565b60008135905061038781610361565b92915050565b600080604083850312156103a4576103a361032a565b5b60006103b285828601610378565b92505060206103c385828601610378565b9150509250929050565b60008115159050919050565b6103e2816103cd565b82525050565b60006020820190506103fd60008301846103d9565b9291505056fea2646970667358221220fdd1d932416891908797610b0f846b39df31f8ba151d7cdadee26f0b04d747ec64736f6c634300080b0033",
  "immutableReferences": {},
  "source": "// SPDX-License-Identifier: Cabal\npragma solidity ^0.8.0;\n\n\ncontract Oath {\n    address admin;\n    mapping(address => mapping(address => mapping(address => bool))) connections;\n\n    constructor() {\n        admin = msg.sender;\n    }\n\n    function createConnection(address service_wallet, address data_type_address)\n        public\n    {\n        connections[msg.sender][service_wallet][data_type_address] = true;\n    }\n\n    function revokeConnection(address service_wallet, address data_type_address)\n        public\n    {\n        connections[msg.sender][service_wallet][data_type_address] = false;\n    }\n\n    function checkConnection(address user_wallet, address data_type_address)\n        public\n        view\n        \n        returns (bool)\n    {\n        return (connections[user_wallet][msg.sender][data_type_address]);\n    }\n\n    \n}\n",
  "sourcePath": "/Users/samuelschmitt/Documents/Easy Access/Quae Folders/Quae Repos/Cabal-ETHNYC/cabal-contracts/contracts/Oath.sol",
  "compiler": {
    "name": "solc",
    "version": "0.8.11+commit.d7f03943.Emscripten.clang"
  },
  "schemaVersion": "3.4.4",
  "updatedAt": "2022-06-26T06:03:43.676Z",
  "devdoc": {
    "kind": "dev",
    "methods": {},
    "version": 1
  },
  "userdoc": {
    "kind": "user",
    "methods": {},
    "version": 1
  }
}