{
  "contractName": "Oath",
  "abi": [
    {
      "inputs": [],
      "stateMutability": "nonpayable",
      "type": "constructor"
    },
    {
      "inputs": [
        {
          "internalType": "address",
          "name": "service_wallet",
          "type": "address"
        },
        {
          "internalType": "address",
          "name": "data_type_address",
          "type": "address"
        }
      ],
      "name": "createConnection",
      "outputs": [],
      "stateMutability": "nonpayable",
      "type": "function"
    },
    {
      "inputs": [
        {
          "internalType": "address",
          "name": "service_wallet",
          "type": "address"
        },
        {
          "internalType": "address",
          "name": "data_type_address",
          "type": "address"
        }
      ],
      "name": "revokeConnection",
      "outputs": [],
      "stateMutability": "nonpayable",
      "type": "function"
    },
    {
      "inputs": [
        {
          "internalType": "address",
          "name": "user_wallet",
          "type": "address"
        },
        {
          "internalType": "address",
          "name": "data_type_address",
          "type": "address"
        },
        {
          "internalType": "address",
          "name": "requester_address",
          "type": "address"
        }
      ],
      "name": "checkConnection",
      "outputs": [
        {
          "internalType": "bool",
          "name": "",
          "type": "bool"
        }
      ],
      "stateMutability": "view",
      "type": "function",
      "constant": true
    }
  ],
  "bytecode": "0x608060405234801561001057600080fd5b50336000806101000a81548173ffffffffffffffffffffffffffffffffffffffff021916908373ffffffffffffffffffffffffffffffffffffffff16021790555061048d806100606000396000f3fe608060405234801561001057600080fd5b50600436106100415760003560e01c806382dbf143146100465780638f8d7f7e14610062578063d51ab8601461007e575b600080fd5b610060600480360381019061005b919061038e565b6100ae565b005b61007c6004803603810190610077919061038e565b610184565b005b610098600480360381019061009391906103ce565b610259565b6040516100a5919061043c565b60405180910390f35b6000600160003373ffffffffffffffffffffffffffffffffffffffff1673ffffffffffffffffffffffffffffffffffffffff16815260200190815260200160002060008473ffffffffffffffffffffffffffffffffffffffff1673ffffffffffffffffffffffffffffffffffffffff16815260200190815260200160002060008373ffffffffffffffffffffffffffffffffffffffff1673ffffffffffffffffffffffffffffffffffffffff16815260200190815260200160002060006101000a81548160ff0219169083151502179055505050565b60018060003373ffffffffffffffffffffffffffffffffffffffff1673ffffffffffffffffffffffffffffffffffffffff16815260200190815260200160002060008473ffffffffffffffffffffffffffffffffffffffff1673ffffffffffffffffffffffffffffffffffffffff16815260200190815260200160002060008373ffffffffffffffffffffffffffffffffffffffff1673ffffffffffffffffffffffffffffffffffffffff16815260200190815260200160002060006101000a81548160ff0219169083151502179055505050565b6000600160008573ffffffffffffffffffffffffffffffffffffffff1673ffffffffffffffffffffffffffffffffffffffff16815260200190815260200160002060008373ffffffffffffffffffffffffffffffffffffffff1673ffffffffffffffffffffffffffffffffffffffff16815260200190815260200160002060008473ffffffffffffffffffffffffffffffffffffffff1673ffffffffffffffffffffffffffffffffffffffff16815260200190815260200160002060009054906101000a900460ff1690509392505050565b600080fd5b600073ffffffffffffffffffffffffffffffffffffffff82169050919050565b600061035b82610330565b9050919050565b61036b81610350565b811461037657600080fd5b50565b60008135905061038881610362565b92915050565b600080604083850312156103a5576103a461032b565b5b60006103b385828601610379565b92505060206103c485828601610379565b9150509250929050565b6000806000606084860312156103e7576103e661032b565b5b60006103f586828701610379565b935050602061040686828701610379565b925050604061041786828701610379565b9150509250925092565b60008115159050919050565b61043681610421565b82525050565b6000602082019050610451600083018461042d565b9291505056fea2646970667358221220c7bd074aba1d2c9f9c81d1f8d74a35e97abccb4e7ddb1338e784ecbad6fb0e6a64736f6c634300080b0033",
  "immutableReferences": {},
  "source": "// SPDX-License-Identifier: Cabal\npragma solidity ^0.8.0;\n\n\ncontract Oath {\n    address admin;\n    mapping(address => mapping(address => mapping(address => bool))) connections;\n\n    constructor() {\n        admin = msg.sender;\n    }\n\n    function createConnection(address service_wallet, address data_type_address)\n        public\n    {\n        connections[msg.sender][service_wallet][data_type_address] = true;\n    }\n\n    function revokeConnection(address service_wallet, address data_type_address)\n        public\n    {\n        connections[msg.sender][service_wallet][data_type_address] = false;\n    }\n\n    function checkConnection(address user_wallet, address data_type_address, address requester_address)\n        public\n        view\n        returns (bool)\n    {\n        return (connections[user_wallet][requester_address][data_type_address]);\n    }\n\n    \n}\n",
  "sourcePath": "/Users/samuelschmitt/Documents/Easy Access/Quae Folders/Quae Repos/Cabal-ETHNYC/cabal-contracts/contracts/Oath.sol",
  "compiler": {
    "name": "solc",
    "version": "0.8.11+commit.d7f03943.Emscripten.clang"
  },
  "schemaVersion": "3.4.4",
  "updatedAt": "2022-06-26T06:34:06.989Z",
  "networkType": "ethereum",
  "devdoc": {
    "kind": "dev",
    "methods": {},
    "version": 1
  },
  "userdoc": {
    "kind": "user",
    "methods": {},
    "version": 1
  }
}